{
  "_format": "hh-sol-artifact-1",
  "contractName": "Voting",
  "sourceName": "contracts/Voting.sol",
  "abi": [
    {
      "inputs": [],
      "stateMutability": "nonpayable",
      "type": "constructor"
    },
    {
      "inputs": [
        {
          "internalType": "address",
          "name": "owner",
          "type": "address"
        }
      ],
      "name": "OwnableInvalidOwner",
      "type": "error"
    },
    {
      "inputs": [
        {
          "internalType": "address",
          "name": "account",
          "type": "address"
        }
      ],
      "name": "OwnableUnauthorizedAccount",
      "type": "error"
    },
    {
      "anonymous": false,
      "inputs": [
        {
          "indexed": true,
          "internalType": "address",
          "name": "previousOwner",
          "type": "address"
        },
        {
          "indexed": true,
          "internalType": "address",
          "name": "newOwner",
          "type": "address"
        }
      ],
      "name": "OwnershipTransferred",
      "type": "event"
    },
    {
      "inputs": [
        {
          "internalType": "address",
          "name": "_user",
          "type": "address"
        }
      ],
      "name": "addToWhitelist",
      "outputs": [],
      "stateMutability": "nonpayable",
      "type": "function"
    },
    {
      "inputs": [],
      "name": "endProposalsRegistration",
      "outputs": [],
      "stateMutability": "nonpayable",
      "type": "function"
    },
    {
      "inputs": [],
      "name": "endVotingSession",
      "outputs": [],
      "stateMutability": "nonpayable",
      "type": "function"
    },
    {
      "inputs": [],
      "name": "getAllProposals",
      "outputs": [
        {
          "components": [
            {
              "internalType": "uint256",
              "name": "id",
              "type": "uint256"
            },
            {
              "internalType": "string",
              "name": "description",
              "type": "string"
            },
            {
              "internalType": "string",
              "name": "comment",
              "type": "string"
            },
            {
              "internalType": "uint256",
              "name": "voteCount",
              "type": "uint256"
            }
          ],
          "internalType": "struct Voting.Proposal[]",
          "name": "",
          "type": "tuple[]"
        }
      ],
      "stateMutability": "view",
      "type": "function"
    },
    {
      "inputs": [],
      "name": "getWinningProposal",
      "outputs": [
        {
          "internalType": "string",
          "name": "_winningProposalDescription",
          "type": "string"
        },
        {
          "internalType": "string",
          "name": "_winningProposalComment",
          "type": "string"
        }
      ],
      "stateMutability": "view",
      "type": "function"
    },
    {
      "inputs": [
        {
          "internalType": "address",
          "name": "_user",
          "type": "address"
        }
      ],
      "name": "isWhitelisted",
      "outputs": [
        {
          "internalType": "bool",
          "name": "",
          "type": "bool"
        }
      ],
      "stateMutability": "view",
      "type": "function"
    },
    {
      "inputs": [],
      "name": "owner",
      "outputs": [
        {
          "internalType": "address",
          "name": "",
          "type": "address"
        }
      ],
      "stateMutability": "view",
      "type": "function"
    },
    {
      "inputs": [
        {
          "internalType": "uint256",
          "name": "",
          "type": "uint256"
        }
      ],
      "name": "proposals",
      "outputs": [
        {
          "internalType": "uint256",
          "name": "id",
          "type": "uint256"
        },
        {
          "internalType": "string",
          "name": "description",
          "type": "string"
        },
        {
          "internalType": "string",
          "name": "comment",
          "type": "string"
        },
        {
          "internalType": "uint256",
          "name": "voteCount",
          "type": "uint256"
        }
      ],
      "stateMutability": "view",
      "type": "function"
    },
    {
      "inputs": [
        {
          "internalType": "string",
          "name": "_proposalDescription",
          "type": "string"
        },
        {
          "internalType": "string",
          "name": "_comment",
          "type": "string"
        }
      ],
      "name": "registerProposal",
      "outputs": [],
      "stateMutability": "nonpayable",
      "type": "function"
    },
    {
      "inputs": [
        {
          "internalType": "address",
          "name": "_user",
          "type": "address"
        }
      ],
      "name": "removeFromWhitelist",
      "outputs": [],
      "stateMutability": "nonpayable",
      "type": "function"
    },
    {
      "inputs": [],
      "name": "renounceOwnership",
      "outputs": [],
      "stateMutability": "nonpayable",
      "type": "function"
    },
    {
      "inputs": [],
      "name": "startProposalsRegistration",
      "outputs": [],
      "stateMutability": "nonpayable",
      "type": "function"
    },
    {
      "inputs": [],
      "name": "startVotingSession",
      "outputs": [],
      "stateMutability": "nonpayable",
      "type": "function"
    },
    {
      "inputs": [],
      "name": "tallyVotes",
      "outputs": [],
      "stateMutability": "nonpayable",
      "type": "function"
    },
    {
      "inputs": [
        {
          "internalType": "address",
          "name": "newOwner",
          "type": "address"
        }
      ],
      "name": "transferOwnership",
      "outputs": [],
      "stateMutability": "nonpayable",
      "type": "function"
    },
    {
      "inputs": [
        {
          "internalType": "uint256",
          "name": "_proposalId",
          "type": "uint256"
        }
      ],
      "name": "vote",
      "outputs": [],
      "stateMutability": "nonpayable",
      "type": "function"
    },
    {
      "inputs": [
        {
          "internalType": "address",
          "name": "",
          "type": "address"
        }
      ],
      "name": "voters",
      "outputs": [
        {
          "internalType": "bool",
          "name": "isRegistered",
          "type": "bool"
        },
        {
          "internalType": "bool",
          "name": "hasVoted",
          "type": "bool"
        },
        {
          "internalType": "uint256",
          "name": "votedProposalId",
          "type": "uint256"
        }
      ],
      "stateMutability": "view",
      "type": "function"
    },
    {
      "inputs": [],
      "name": "workflowStatus",
      "outputs": [
        {
          "internalType": "enum Voting.WorkflowStatus",
          "name": "",
          "type": "uint8"
        }
      ],
      "stateMutability": "view",
      "type": "function"
    }
  ],
  "bytecode": "0x60a0604052600060809081526001906200001a908262000161565b503480156200002857600080fd5b5033806200005057604051631e4fbdf760e01b81526000600482015260240160405180910390fd5b6200005b816200006c565b506004805460ff191690556200022d565b600080546001600160a01b038381166001600160a01b0319831681178455604051919092169283917f8be0079c531659141344cd1fd0a4f28419497f9722a3daafe3b4186f6b6457e09190a35050565b634e487b7160e01b600052604160045260246000fd5b600181811c90821680620000e757607f821691505b6020821081036200010857634e487b7160e01b600052602260045260246000fd5b50919050565b601f8211156200015c57600081815260208120601f850160051c81016020861015620001375750805b601f850160051c820191505b81811015620001585782815560010162000143565b5050505b505050565b81516001600160401b038111156200017d576200017d620000bc565b62000195816200018e8454620000d2565b846200010e565b602080601f831160018114620001cd5760008415620001b45750858301515b600019600386901b1c1916600185901b17855562000158565b600085815260208120601f198616915b82811015620001fe57888601518255948401946001909101908401620001dd565b50858210156200021d5787850151600019600388901b60f8161c191681555b5050505050600190811b01905550565b611722806200023d6000396000f3fe608060405234801561001057600080fd5b50600436106100f65760003560e01c8063a1edffa211610092578063a1edffa2146101cf578063a3ec138d146101e9578063a51346201461023a578063a7bfab1614610250578063cceb68f514610258578063e09b8c791461026d578063e43252d714610275578063ee74c67814610288578063f2fde38b1461029057600080fd5b80630121b93f146100fb578063013cf08b146101105780631ee5eda31461013c578063378a21781461014f5780633af32abf146101575780636c29744514610193578063715018a61461019b5780638ab1d681146101a35780638da5cb5b146101b6575b600080fd5b61010e610109366004611256565b6102a3565b005b61012361011e366004611256565b610494565b60405161013394939291906112b5565b60405180910390f35b61010e61014a366004611395565b6105e0565b61010e61079b565b6101836101653660046113f9565b6001600160a01b031660009081526002602052604090205460ff1690565b6040519015158152602001610133565b61010e610841565b61010e6108e9565b61010e6101b13660046113f9565b6108fd565b6000546001600160a01b03166040516101339190611429565b6004546101dc9060ff1681565b6040516101339190611453565b61021d6101f73660046113f9565b6002602052600090815260409020805460019091015460ff808316926101009004169083565b604080519315158452911515602084015290820152606001610133565b610242610a38565b60405161013392919061147b565b61010e610cb8565b610260610d57565b60405161013391906114a9565b61010e610eee565b61010e6102833660046113f9565b610fa3565b61010e6110e0565b61010e61029e3660046113f9565b61119b565b3360009081526002602052604090205460ff166103075760405162461bcd60e51b815260206004820181905260248201527f4f6e6c79207265676973746572656420766f746572732063616e20766f74652e60448201526064015b60405180910390fd5b33600090815260026020526040902054610100900460ff161561036c5760405162461bcd60e51b815260206004820152601c60248201527f54686520766f7465722068617320616c726561647920766f7465642e0000000060448201526064016102fe565b600360045460ff1660058111156103855761038561143d565b146103ec5760405162461bcd60e51b815260206004820152603160248201527f566f7465732063616e206f6e6c79206265206361737420647572696e6720746860448201527032903b37ba34b7339039b2b9b9b4b7b71760791b60648201526084016102fe565b60035481106104345760405162461bcd60e51b815260206004820152601460248201527324b73b30b634b210383937b837b9b0b61034b21760611b60448201526064016102fe565b336000908152600260205260409020805461ff0019166101001781556001908101829055600380548390811061046c5761046c611545565b9060005260206000209060040201600301600082825461048c9190611571565b909155505050565b600381815481106104a457600080fd5b600091825260209091206004909102018054600182018054919350906104c99061158a565b80601f01602080910402602001604051908101604052809291908181526020018280546104f59061158a565b80156105425780601f1061051757610100808354040283529160200191610542565b820191906000526020600020905b81548152906001019060200180831161052557829003601f168201915b5050505050908060020180546105579061158a565b80601f01602080910402602001604051908101604052809291908181526020018280546105839061158a565b80156105d05780601f106105a5576101008083540402835291602001916105d0565b820191906000526020600020905b8154815290600101906020018083116105b357829003601f168201915b5050505050908060030154905084565b3360009081526002602052604090205460ff166106565760405162461bcd60e51b815260206004820152602e60248201527f4f6e6c79207265676973746572656420766f746572732063616e20726567697360448201526d3a32b910383937b837b9b0b6399760911b60648201526084016102fe565b600160045460ff16600581111561066f5761066f61143d565b146106e25760405162461bcd60e51b815260206004820152603f60248201527f50726f706f73616c732063616e206f6e6c79206265207265676973746572656460448201527f20647572696e672070726f706f73616c7320726567697374726174696f6e2e0060648201526084016102fe565b60408051608081018252600380548083526020830186815293830185905260006060840181905260018201835591909152815160049091027fc2575a0e9e593c00f959f8c92f12db2869c3395a3b0502d05e2516446f71f85b81019182559251919290917fc2575a0e9e593c00f959f8c92f12db2869c3395a3b0502d05e2516446f71f85c909101906107759082611613565b506040820151600282019061078a9082611613565b506060820151816003015550505050565b6107a36111d9565b6004805460ff1660058111156107bb576107bb61143d565b1461082a5760405162461bcd60e51b815260206004820152603960248201527f566f7465732063616e206f6e6c792062652074616c6c696564206166746572206044820152783b37ba34b7339039b2b9b9b4b7b7103430b99032b73232b21760391b60648201526084016102fe565b600480546005919060ff19166001835b0217905550565b6108496111d9565b600160045460ff1660058111156108625761086261143d565b146108d55760405162461bcd60e51b815260206004820152603e60248201527f50726f706f73616c7320726567697374726174696f6e2063616e206f6e6c792060448201527f626520656e6465642061667465722069742068617320737461727465642e000060648201526084016102fe565b600480546002919060ff191660018361083a565b6108f16111d9565b6108fb6000611206565b565b6109056111d9565b600060045460ff16600581111561091e5761091e61143d565b146109b15760405162461bcd60e51b815260206004820152605760248201527f55736572732063616e206f6e6c792062652072656d6f7665642066726f6d207460448201527f68652077686974656c697374206265666f72652070726f706f73616c7320726560648201527633b4b9ba3930ba34b7b7103430b99039ba30b93a32b21760491b608482015260a4016102fe565b6001600160a01b03811660009081526002602052604090205460ff16610a175760405162461bcd60e51b815260206004820152601b60248201527a2a3432903ab9b2b91034b9903737ba103932b3b4b9ba32b932b21760291b60448201526064016102fe565b6001600160a01b03166000908152600260205260409020805460ff19169055565b606080600560045460ff166005811115610a5457610a5461143d565b14610ada5760405162461bcd60e51b815260206004820152604a60248201527f5468652077696e6e696e672070726f706f73616c2063616e206f6e6c7920626560448201527f2064657465726d696e656420616674657220766f74657320686176652062656560648201526937103a30b63634b2b21760b11b608482015260a4016102fe565b60008060005b600354811015610b53578260038281548110610afe57610afe611545565b9060005260206000209060040201600301541115610b415760038181548110610b2957610b29611545565b90600052602060002090600402016003015492508091505b80610b4b816116d3565b915050610ae0565b5060038181548110610b6757610b67611545565b90600052602060002090600402016001018054610b839061158a565b80601f0160208091040260200160405190810160405280929190818152602001828054610baf9061158a565b8015610bfc5780601f10610bd157610100808354040283529160200191610bfc565b820191906000526020600020905b815481529060010190602001808311610bdf57829003601f168201915b5050505050935060038181548110610c1657610c16611545565b90600052602060002090600402016002018054610c329061158a565b80601f0160208091040260200160405190810160405280929190818152602001828054610c5e9061158a565b8015610cab5780601f10610c8057610100808354040283529160200191610cab565b820191906000526020600020905b815481529060010190602001808311610c8e57829003601f168201915b5050505050925050509091565b610cc06111d9565b600360045460ff166005811115610cd957610cd961143d565b14610d455760405162461bcd60e51b815260206004820152603660248201527f566f74696e672073657373696f6e2063616e206f6e6c7920626520656e6465646044820152751030b33a32b91034ba103430b99039ba30b93a32b21760511b60648201526084016102fe565b60048054819060ff191660018261083a565b60606003805480602002602001604051908101604052809291908181526020016000905b82821015610ee5578382906000526020600020906004020160405180608001604052908160008201548152602001600182018054610db89061158a565b80601f0160208091040260200160405190810160405280929190818152602001828054610de49061158a565b8015610e315780601f10610e0657610100808354040283529160200191610e31565b820191906000526020600020905b815481529060010190602001808311610e1457829003601f168201915b50505050508152602001600282018054610e4a9061158a565b80601f0160208091040260200160405190810160405280929190818152602001828054610e769061158a565b8015610ec35780601f10610e9857610100808354040283529160200191610ec3565b820191906000526020600020905b815481529060010190602001808311610ea657829003601f168201915b5050505050815260200160038201548152505081526020019060010190610d7b565b50505050905090565b610ef66111d9565b600060045460ff166005811115610f0f57610f0f61143d565b14610f905760405162461bcd60e51b815260206004820152604560248201527f50726f706f73616c7320726567697374726174696f6e2063616e206f6e6c792060448201527f6265207374617274656420616674657220766f746572732072656769737472616064820152643a34b7b71760d91b608482015260a4016102fe565b600480546001919060ff1916828061083a565b610fab6111d9565b600060045460ff166005811115610fc457610fc461143d565b146110535760405162461bcd60e51b815260206004820152605360248201527f55736572732063616e206f6e6c7920626520616464656420746f20746865207760448201527f686974656c697374206265666f72652070726f706f73616c73207265676973746064820152723930ba34b7b7103430b99039ba30b93a32b21760691b608482015260a4016102fe565b6001600160a01b03811660009081526002602052604090205460ff16156110bc5760405162461bcd60e51b815260206004820152601f60248201527f546865207573657220697320616c726561647920726567697374657265642e0060448201526064016102fe565b6001600160a01b03166000908152600260205260409020805460ff19166001179055565b6110e86111d9565b600260045460ff1660058111156111015761110161143d565b146111875760405162461bcd60e51b815260206004820152604a60248201527f566f74696e672073657373696f6e2063616e206f6e6c7920626520737461727460448201527f65642061667465722070726f706f73616c7320726567697374726174696f6e206064820152693430b99032b73232b21760b11b608482015260a4016102fe565b600480546003919060ff191660018361083a565b6111a36111d9565b6001600160a01b0381166111cd576000604051631e4fbdf760e01b81526004016102fe9190611429565b6111d681611206565b50565b6000546001600160a01b031633146108fb573360405163118cdaa760e01b81526004016102fe9190611429565b600080546001600160a01b038381166001600160a01b0319831681178455604051919092169283917f8be0079c531659141344cd1fd0a4f28419497f9722a3daafe3b4186f6b6457e09190a35050565b60006020828403121561126857600080fd5b5035919050565b6000815180845260005b8181101561129557602081850181015186830182015201611279565b506000602082860101526020601f19601f83011685010191505092915050565b8481526080602082015260006112ce608083018661126f565b82810360408401526112e0818661126f565b91505082606083015295945050505050565b634e487b7160e01b600052604160045260246000fd5b600082601f83011261131957600080fd5b813567ffffffffffffffff80821115611334576113346112f2565b604051601f8301601f19908116603f0116810190828211818310171561135c5761135c6112f2565b8160405283815286602085880101111561137557600080fd5b836020870160208301376000602085830101528094505050505092915050565b600080604083850312156113a857600080fd5b823567ffffffffffffffff808211156113c057600080fd5b6113cc86838701611308565b935060208501359150808211156113e257600080fd5b506113ef85828601611308565b9150509250929050565b60006020828403121561140b57600080fd5b81356001600160a01b038116811461142257600080fd5b9392505050565b6001600160a01b0391909116815260200190565b634e487b7160e01b600052602160045260246000fd5b602081016006831061147557634e487b7160e01b600052602160045260246000fd5b91905290565b60408152600061148e604083018561126f565b82810360208401526114a0818561126f565b95945050505050565b60006020808301818452808551808352604092508286019150828160051b87010184880160005b8381101561153757603f19898403018552815160808151855288820151818a8701526114fe8287018261126f565b9150508782015185820389870152611516828261126f565b606093840151969093019590955250948701949250908601906001016114d0565b509098975050505050505050565b634e487b7160e01b600052603260045260246000fd5b634e487b7160e01b600052601160045260246000fd5b808201808211156115845761158461155b565b92915050565b600181811c9082168061159e57607f821691505b6020821081036115be57634e487b7160e01b600052602260045260246000fd5b50919050565b601f82111561160e57600081815260208120601f850160051c810160208610156115eb5750805b601f850160051c820191505b8181101561160a578281556001016115f7565b5050505b505050565b815167ffffffffffffffff81111561162d5761162d6112f2565b6116418161163b845461158a565b846115c4565b602080601f831160018114611676576000841561165e5750858301515b600019600386901b1c1916600185901b17855561160a565b600085815260208120601f198616915b828110156116a557888601518255948401946001909101908401611686565b50858210156116c35787850151600019600388901b60f8161c191681555b5050505050600190811b01905550565b6000600182016116e5576116e561155b565b506001019056fea2646970667358221220cfee549359b8d37c4e1b6f288a2cdb8351b041ab47e0cb4fc26a7c96fc1c9b6564736f6c63430008140033",
  "linkReferences": {},
  "deployedLinkReferences": {}
}