{"contracts/Voting.sol":{"Voting":{"abi":[{"inputs":[],"stateMutability":"nonpayable","type":"constructor"},{"inputs":[{"internalType":"address","name":"owner","type":"address"}],"name":"OwnableInvalidOwner","type":"error"},{"inputs":[{"internalType":"address","name":"account","type":"address"}],"name":"OwnableUnauthorizedAccount","type":"error"},{"anonymous":false,"inputs":[{"indexed":true,"internalType":"address","name":"previousOwner","type":"address"},{"indexed":true,"internalType":"address","name":"newOwner","type":"address"}],"name":"OwnershipTransferred","type":"event"},{"inputs":[],"name":"endProposalsRegistration","outputs":[],"stateMutability":"nonpayable","type":"function"},{"inputs":[],"name":"endVotingSession","outputs":[],"stateMutability":"nonpayable","type":"function"},{"inputs":[],"name":"getWinningProposal","outputs":[{"internalType":"string","name":"_winningProposalDescription","type":"string"},{"internalType":"string","name":"_winningProposalComment","type":"string"}],"stateMutability":"view","type":"function"},{"inputs":[],"name":"owner","outputs":[{"internalType":"address","name":"","type":"address"}],"stateMutability":"view","type":"function"},{"inputs":[{"internalType":"uint256","name":"","type":"uint256"}],"name":"proposals","outputs":[{"internalType":"uint256","name":"id","type":"uint256"},{"internalType":"string","name":"description","type":"string"},{"internalType":"string","name":"comment","type":"string"},{"internalType":"uint256","name":"voteCount","type":"uint256"}],"stateMutability":"view","type":"function"},{"inputs":[{"internalType":"string","name":"_proposalDescription","type":"string"},{"internalType":"string","name":"_comment","type":"string"}],"name":"registerProposal","outputs":[],"stateMutability":"nonpayable","type":"function"},{"inputs":[{"internalType":"address","name":"_voterAddress","type":"address"}],"name":"registerVoter","outputs":[],"stateMutability":"nonpayable","type":"function"},{"inputs":[],"name":"renounceOwnership","outputs":[],"stateMutability":"nonpayable","type":"function"},{"inputs":[],"name":"startProposalsRegistration","outputs":[],"stateMutability":"nonpayable","type":"function"},{"inputs":[],"name":"startVotingSession","outputs":[],"stateMutability":"nonpayable","type":"function"},{"inputs":[],"name":"tallyVotes","outputs":[],"stateMutability":"nonpayable","type":"function"},{"inputs":[{"internalType":"address","name":"newOwner","type":"address"}],"name":"transferOwnership","outputs":[],"stateMutability":"nonpayable","type":"function"},{"inputs":[{"internalType":"uint256","name":"_proposalId","type":"uint256"}],"name":"vote","outputs":[],"stateMutability":"nonpayable","type":"function"},{"inputs":[{"internalType":"address","name":"","type":"address"}],"name":"voters","outputs":[{"internalType":"bool","name":"isRegistered","type":"bool"},{"internalType":"bool","name":"hasVoted","type":"bool"},{"internalType":"uint256","name":"votedProposalId","type":"uint256"}],"stateMutability":"view","type":"function"},{"inputs":[],"name":"workflowStatus","outputs":[{"internalType":"enum Voting.WorkflowStatus","name":"","type":"uint8"}],"stateMutability":"view","type":"function"}],"evm":{"bytecode":{"linkReferences":{},"object":"60a0604052600060809081526001906200001a908262000161565b503480156200002857600080fd5b5033806200005057604051631e4fbdf760e01b81526000600482015260240160405180910390fd5b6200005b816200006c565b506004805460ff191690556200022d565b600080546001600160a01b038381166001600160a01b0319831681178455604051919092169283917f8be0079c531659141344cd1fd0a4f28419497f9722a3daafe3b4186f6b6457e09190a35050565b634e487b7160e01b600052604160045260246000fd5b600181811c90821680620000e757607f821691505b6020821081036200010857634e487b7160e01b600052602260045260246000fd5b50919050565b601f8211156200015c57600081815260208120601f850160051c81016020861015620001375750805b601f850160051c820191505b81811015620001585782815560010162000143565b5050505b505050565b81516001600160401b038111156200017d576200017d620000bc565b62000195816200018e8454620000d2565b846200010e565b602080601f831160018114620001cd5760008415620001b45750858301515b600019600386901b1c1916600185901b17855562000158565b600085815260208120601f198616915b82811015620001fe57888601518255948401946001909101908401620001dd565b50858210156200021d5787850151600019600388901b60f8161c191681555b5050505050600190811b01905550565b611314806200023d6000396000f3fe608060405234801561001057600080fd5b50600436106100c55760003560e01c80630121b93f146100ca578063013cf08b146100df5780631ee5eda31461010b578063378a21781461011e57806338db6dd3146101265780636c29744514610139578063715018a6146101415780638da5cb5b14610149578063a1edffa214610162578063a3ec138d1461017c578063a5134620146101cd578063a7bfab16146101e3578063e09b8c79146101eb578063ee74c678146101f3578063f2fde38b146101fb575b600080fd5b6100dd6100d8366004610ee4565b61020e565b005b6100f26100ed366004610ee4565b6103ff565b6040516101029493929190610f43565b60405180910390f35b6100dd610119366004611023565b61054b565b6100dd610706565b6100dd610134366004611087565b6107ac565b6100dd6108de565b6100dd610986565b6000546001600160a01b031660405161010291906110b7565b60045461016f9060ff1681565b60405161010291906110e1565b6101b061018a366004611087565b6002602052600090815260409020805460019091015460ff808316926101009004169083565b604080519315158452911515602084015290820152606001610102565b6101d561099a565b604051610102929190611109565b6100dd610c1a565b6100dd610cb9565b6100dd610d6e565b6100dd610209366004611087565b610e29565b3360009081526002602052604090205460ff166102725760405162461bcd60e51b815260206004820181905260248201527f4f6e6c79207265676973746572656420766f746572732063616e20766f74652e60448201526064015b60405180910390fd5b33600090815260026020526040902054610100900460ff16156102d75760405162461bcd60e51b815260206004820152601c60248201527f54686520766f7465722068617320616c726561647920766f7465642e000000006044820152606401610269565b600360045460ff1660058111156102f0576102f06110cb565b146103575760405162461bcd60e51b815260206004820152603160248201527f566f7465732063616e206f6e6c79206265206361737420647572696e6720746860448201527032903b37ba34b7339039b2b9b9b4b7b71760791b6064820152608401610269565b600354811061039f5760405162461bcd60e51b815260206004820152601460248201527324b73b30b634b210383937b837b9b0b61034b21760611b6044820152606401610269565b336000908152600260205260409020805461ff001916610100178155600190810182905560038054839081106103d7576103d7611137565b906000526020600020906004020160030160008282546103f79190611163565b909155505050565b6003818154811061040f57600080fd5b600091825260209091206004909102018054600182018054919350906104349061117c565b80601f01602080910402602001604051908101604052809291908181526020018280546104609061117c565b80156104ad5780601f10610482576101008083540402835291602001916104ad565b820191906000526020600020905b81548152906001019060200180831161049057829003601f168201915b5050505050908060020180546104c29061117c565b80601f01602080910402602001604051908101604052809291908181526020018280546104ee9061117c565b801561053b5780601f106105105761010080835404028352916020019161053b565b820191906000526020600020905b81548152906001019060200180831161051e57829003601f168201915b5050505050908060030154905084565b3360009081526002602052604090205460ff166105c15760405162461bcd60e51b815260206004820152602e60248201527f4f6e6c79207265676973746572656420766f746572732063616e20726567697360448201526d3a32b910383937b837b9b0b6399760911b6064820152608401610269565b600160045460ff1660058111156105da576105da6110cb565b1461064d5760405162461bcd60e51b815260206004820152603f60248201527f50726f706f73616c732063616e206f6e6c79206265207265676973746572656460448201527f20647572696e672070726f706f73616c7320726567697374726174696f6e2e006064820152608401610269565b60408051608081018252600380548083526020830186815293830185905260006060840181905260018201835591909152815160049091027fc2575a0e9e593c00f959f8c92f12db2869c3395a3b0502d05e2516446f71f85b81019182559251919290917fc2575a0e9e593c00f959f8c92f12db2869c3395a3b0502d05e2516446f71f85c909101906106e09082611205565b50604082015160028201906106f59082611205565b506060820151816003015550505050565b61070e610e67565b6004805460ff166005811115610726576107266110cb565b146107955760405162461bcd60e51b815260206004820152603960248201527f566f7465732063616e206f6e6c792062652074616c6c696564206166746572206044820152783b37ba34b7339039b2b9b9b4b7b7103430b99032b73232b21760391b6064820152608401610269565b600480546005919060ff19166001835b0217905550565b6107b4610e67565b600060045460ff1660058111156107cd576107cd6110cb565b146108515760405162461bcd60e51b815260206004820152604860248201527f566f746572732063616e206f6e6c79206265207265676973746572656420626560448201527f666f72652070726f706f73616c7320726567697374726174696f6e206861732060648201526739ba30b93a32b21760c11b608482015260a401610269565b6001600160a01b03811660009081526002602052604090205460ff16156108ba5760405162461bcd60e51b815260206004820181905260248201527f54686520766f74657220697320616c726561647920726567697374657265642e6044820152606401610269565b6001600160a01b03166000908152600260205260409020805460ff19166001179055565b6108e6610e67565b600160045460ff1660058111156108ff576108ff6110cb565b146109725760405162461bcd60e51b815260206004820152603e60248201527f50726f706f73616c7320726567697374726174696f6e2063616e206f6e6c792060448201527f626520656e6465642061667465722069742068617320737461727465642e00006064820152608401610269565b600480546002919060ff19166001836107a5565b61098e610e67565b6109986000610e94565b565b606080600560045460ff1660058111156109b6576109b66110cb565b14610a3c5760405162461bcd60e51b815260206004820152604a60248201527f5468652077696e6e696e672070726f706f73616c2063616e206f6e6c7920626560448201527f2064657465726d696e656420616674657220766f74657320686176652062656560648201526937103a30b63634b2b21760b11b608482015260a401610269565b60008060005b600354811015610ab5578260038281548110610a6057610a60611137565b9060005260206000209060040201600301541115610aa35760038181548110610a8b57610a8b611137565b90600052602060002090600402016003015492508091505b80610aad816112c5565b915050610a42565b5060038181548110610ac957610ac9611137565b90600052602060002090600402016001018054610ae59061117c565b80601f0160208091040260200160405190810160405280929190818152602001828054610b119061117c565b8015610b5e5780601f10610b3357610100808354040283529160200191610b5e565b820191906000526020600020905b815481529060010190602001808311610b4157829003601f168201915b5050505050935060038181548110610b7857610b78611137565b90600052602060002090600402016002018054610b949061117c565b80601f0160208091040260200160405190810160405280929190818152602001828054610bc09061117c565b8015610c0d5780601f10610be257610100808354040283529160200191610c0d565b820191906000526020600020905b815481529060010190602001808311610bf057829003601f168201915b5050505050925050509091565b610c22610e67565b600360045460ff166005811115610c3b57610c3b6110cb565b14610ca75760405162461bcd60e51b815260206004820152603660248201527f566f74696e672073657373696f6e2063616e206f6e6c7920626520656e6465646044820152751030b33a32b91034ba103430b99039ba30b93a32b21760511b6064820152608401610269565b60048054819060ff19166001826107a5565b610cc1610e67565b600060045460ff166005811115610cda57610cda6110cb565b14610d5b5760405162461bcd60e51b815260206004820152604560248201527f50726f706f73616c7320726567697374726174696f6e2063616e206f6e6c792060448201527f6265207374617274656420616674657220766f746572732072656769737472616064820152643a34b7b71760d91b608482015260a401610269565b600480546001919060ff191682806107a5565b610d76610e67565b600260045460ff166005811115610d8f57610d8f6110cb565b14610e155760405162461bcd60e51b815260206004820152604a60248201527f566f74696e672073657373696f6e2063616e206f6e6c7920626520737461727460448201527f65642061667465722070726f706f73616c7320726567697374726174696f6e206064820152693430b99032b73232b21760b11b608482015260a401610269565b600480546003919060ff19166001836107a5565b610e31610e67565b6001600160a01b038116610e5b576000604051631e4fbdf760e01b815260040161026991906110b7565b610e6481610e94565b50565b6000546001600160a01b03163314610998573360405163118cdaa760e01b815260040161026991906110b7565b600080546001600160a01b038381166001600160a01b0319831681178455604051919092169283917f8be0079c531659141344cd1fd0a4f28419497f9722a3daafe3b4186f6b6457e09190a35050565b600060208284031215610ef657600080fd5b5035919050565b6000815180845260005b81811015610f2357602081850181015186830182015201610f07565b506000602082860101526020601f19601f83011685010191505092915050565b848152608060208201526000610f5c6080830186610efd565b8281036040840152610f6e8186610efd565b91505082606083015295945050505050565b634e487b7160e01b600052604160045260246000fd5b600082601f830112610fa757600080fd5b813567ffffffffffffffff80821115610fc257610fc2610f80565b604051601f8301601f19908116603f01168101908282118183101715610fea57610fea610f80565b8160405283815286602085880101111561100357600080fd5b836020870160208301376000602085830101528094505050505092915050565b6000806040838503121561103657600080fd5b823567ffffffffffffffff8082111561104e57600080fd5b61105a86838701610f96565b9350602085013591508082111561107057600080fd5b5061107d85828601610f96565b9150509250929050565b60006020828403121561109957600080fd5b81356001600160a01b03811681146110b057600080fd5b9392505050565b6001600160a01b0391909116815260200190565b634e487b7160e01b600052602160045260246000fd5b602081016006831061110357634e487b7160e01b600052602160045260246000fd5b91905290565b60408152600061111c6040830185610efd565b828103602084015261112e8185610efd565b95945050505050565b634e487b7160e01b600052603260045260246000fd5b634e487b7160e01b600052601160045260246000fd5b808201808211156111765761117661114d565b92915050565b600181811c9082168061119057607f821691505b6020821081036111b057634e487b7160e01b600052602260045260246000fd5b50919050565b601f82111561120057600081815260208120601f850160051c810160208610156111dd5750805b601f850160051c820191505b818110156111fc578281556001016111e9565b5050505b505050565b815167ffffffffffffffff81111561121f5761121f610f80565b6112338161122d845461117c565b846111b6565b602080601f83116001811461126857600084156112505750858301515b600019600386901b1c1916600185901b1785556111fc565b600085815260208120601f198616915b8281101561129757888601518255948401946001909101908401611278565b50858210156112b55787850151600019600388901b60f8161c191681555b5050505050600190811b01905550565b6000600182016112d7576112d761114d565b506001019056fea2646970667358221220bdfbdb740f9fae37ef737860ff42a3d49555edf5eeb7453dec0785021b81156364736f6c63430008140033","opcodes":"PUSH1 0xA0 PUSH1 0x40 MSTORE PUSH1 0x0 PUSH1 0x80 SWAP1 DUP2 MSTORE PUSH1 0x1 SWAP1 PUSH3 0x1A SWAP1 DUP3 PUSH3 0x161 JUMP JUMPDEST POP CALLVALUE DUP1 ISZERO PUSH3 0x28 JUMPI PUSH1 0x0 DUP1 REVERT JUMPDEST POP CALLER DUP1 PUSH3 0x50 JUMPI PUSH1 0x40 MLOAD PUSH4 0x1E4FBDF7 PUSH1 0xE0 SHL DUP2 MSTORE PUSH1 0x0 PUSH1 0x4 DUP3 ADD MSTORE PUSH1 0x24 ADD PUSH1 0x40 MLOAD DUP1 SWAP2 SUB SWAP1 REVERT JUMPDEST PUSH3 0x5B DUP2 PUSH3 0x6C JUMP JUMPDEST POP PUSH1 0x4 DUP1 SLOAD PUSH1 0xFF NOT AND SWAP1 SSTORE PUSH3 0x22D JUMP JUMPDEST PUSH1 0x0 DUP1 SLOAD PUSH1 0x1 PUSH1 0x1 PUSH1 0xA0 SHL SUB DUP4 DUP2 AND PUSH1 0x1 PUSH1 0x1 PUSH1 0xA0 SHL SUB NOT DUP4 AND DUP2 OR DUP5 SSTORE PUSH1 0x40 MLOAD SWAP2 SWAP1 SWAP3 AND SWAP3 DUP4 SWAP2 PUSH32 0x8BE0079C531659141344CD1FD0A4F28419497F9722A3DAAFE3B4186F6B6457E0 SWAP2 SWAP1 LOG3 POP POP JUMP JUMPDEST PUSH4 0x4E487B71 PUSH1 0xE0 SHL PUSH1 0x0 MSTORE PUSH1 0x41 PUSH1 0x4 MSTORE PUSH1 0x24 PUSH1 0x0 REVERT JUMPDEST PUSH1 0x1 DUP2 DUP2 SHR SWAP1 DUP3 AND DUP1 PUSH3 0xE7 JUMPI PUSH1 0x7F DUP3 AND SWAP2 POP JUMPDEST PUSH1 0x20 DUP3 LT DUP2 SUB PUSH3 0x108 JUMPI PUSH4 0x4E487B71 PUSH1 0xE0 SHL PUSH1 0x0 MSTORE PUSH1 0x22 PUSH1 0x4 MSTORE PUSH1 0x24 PUSH1 0x0 REVERT JUMPDEST POP SWAP2 SWAP1 POP JUMP JUMPDEST PUSH1 0x1F DUP3 GT ISZERO PUSH3 0x15C JUMPI PUSH1 0x0 DUP2 DUP2 MSTORE PUSH1 0x20 DUP2 KECCAK256 PUSH1 0x1F DUP6 ADD PUSH1 0x5 SHR DUP2 ADD PUSH1 0x20 DUP7 LT ISZERO PUSH3 0x137 JUMPI POP DUP1 JUMPDEST PUSH1 0x1F DUP6 ADD PUSH1 0x5 SHR DUP3 ADD SWAP2 POP JUMPDEST DUP2 DUP2 LT ISZERO PUSH3 0x158 JUMPI DUP3 DUP2 SSTORE PUSH1 0x1 ADD PUSH3 0x143 JUMP JUMPDEST POP POP POP JUMPDEST POP POP POP JUMP JUMPDEST DUP2 MLOAD PUSH1 0x1 PUSH1 0x1 PUSH1 0x40 SHL SUB DUP2 GT ISZERO PUSH3 0x17D JUMPI PUSH3 0x17D PUSH3 0xBC JUMP JUMPDEST PUSH3 0x195 DUP2 PUSH3 0x18E DUP5 SLOAD PUSH3 0xD2 JUMP JUMPDEST DUP5 PUSH3 0x10E JUMP JUMPDEST PUSH1 0x20 DUP1 PUSH1 0x1F DUP4 GT PUSH1 0x1 DUP2 EQ PUSH3 0x1CD JUMPI PUSH1 0x0 DUP5 ISZERO PUSH3 0x1B4 JUMPI POP DUP6 DUP4 ADD MLOAD JUMPDEST PUSH1 0x0 NOT PUSH1 0x3 DUP7 SWAP1 SHL SHR NOT AND PUSH1 0x1 DUP6 SWAP1 SHL OR DUP6 SSTORE PUSH3 0x158 JUMP JUMPDEST PUSH1 0x0 DUP6 DUP2 MSTORE PUSH1 0x20 DUP2 KECCAK256 PUSH1 0x1F NOT DUP7 AND SWAP2 JUMPDEST DUP3 DUP2 LT ISZERO PUSH3 0x1FE JUMPI DUP9 DUP7 ADD MLOAD DUP3 SSTORE SWAP5 DUP5 ADD SWAP5 PUSH1 0x1 SWAP1 SWAP2 ADD SWAP1 DUP5 ADD PUSH3 0x1DD JUMP JUMPDEST POP DUP6 DUP3 LT ISZERO PUSH3 0x21D JUMPI DUP8 DUP6 ADD MLOAD PUSH1 0x0 NOT PUSH1 0x3 DUP9 SWAP1 SHL PUSH1 0xF8 AND SHR NOT AND DUP2 SSTORE JUMPDEST POP POP POP POP POP PUSH1 0x1 SWAP1 DUP2 SHL ADD SWAP1 SSTORE POP JUMP JUMPDEST PUSH2 0x1314 DUP1 PUSH3 0x23D PUSH1 0x0 CODECOPY PUSH1 0x0 RETURN INVALID PUSH1 0x80 PUSH1 0x40 MSTORE CALLVALUE DUP1 ISZERO PUSH2 0x10 JUMPI PUSH1 0x0 DUP1 REVERT JUMPDEST POP PUSH1 0x4 CALLDATASIZE LT PUSH2 0xC5 JUMPI PUSH1 0x0 CALLDATALOAD PUSH1 0xE0 SHR DUP1 PUSH4 0x121B93F EQ PUSH2 0xCA JUMPI DUP1 PUSH4 0x13CF08B EQ PUSH2 0xDF JUMPI DUP1 PUSH4 0x1EE5EDA3 EQ PUSH2 0x10B JUMPI DUP1 PUSH4 0x378A2178 EQ PUSH2 0x11E JUMPI DUP1 PUSH4 0x38DB6DD3 EQ PUSH2 0x126 JUMPI DUP1 PUSH4 0x6C297445 EQ PUSH2 0x139 JUMPI DUP1 PUSH4 0x715018A6 EQ PUSH2 0x141 JUMPI DUP1 PUSH4 0x8DA5CB5B EQ PUSH2 0x149 JUMPI DUP1 PUSH4 0xA1EDFFA2 EQ PUSH2 0x162 JUMPI DUP1 PUSH4 0xA3EC138D EQ PUSH2 0x17C JUMPI DUP1 PUSH4 0xA5134620 EQ PUSH2 0x1CD JUMPI DUP1 PUSH4 0xA7BFAB16 EQ PUSH2 0x1E3 JUMPI DUP1 PUSH4 0xE09B8C79 EQ PUSH2 0x1EB JUMPI DUP1 PUSH4 0xEE74C678 EQ PUSH2 0x1F3 JUMPI DUP1 PUSH4 0xF2FDE38B EQ PUSH2 0x1FB JUMPI JUMPDEST PUSH1 0x0 DUP1 REVERT JUMPDEST PUSH2 0xDD PUSH2 0xD8 CALLDATASIZE PUSH1 0x4 PUSH2 0xEE4 JUMP JUMPDEST PUSH2 0x20E JUMP JUMPDEST STOP JUMPDEST PUSH2 0xF2 PUSH2 0xED CALLDATASIZE PUSH1 0x4 PUSH2 0xEE4 JUMP JUMPDEST PUSH2 0x3FF JUMP JUMPDEST PUSH1 0x40 MLOAD PUSH2 0x102 SWAP5 SWAP4 SWAP3 SWAP2 SWAP1 PUSH2 0xF43 JUMP JUMPDEST PUSH1 0x40 MLOAD DUP1 SWAP2 SUB SWAP1 RETURN JUMPDEST PUSH2 0xDD PUSH2 0x119 CALLDATASIZE PUSH1 0x4 PUSH2 0x1023 JUMP JUMPDEST PUSH2 0x54B JUMP JUMPDEST PUSH2 0xDD PUSH2 0x706 JUMP JUMPDEST PUSH2 0xDD PUSH2 0x134 CALLDATASIZE PUSH1 0x4 PUSH2 0x1087 JUMP JUMPDEST PUSH2 0x7AC JUMP JUMPDEST PUSH2 0xDD PUSH2 0x8DE JUMP JUMPDEST PUSH2 0xDD PUSH2 0x986 JUMP JUMPDEST PUSH1 0x0 SLOAD PUSH1 0x1 PUSH1 0x1 PUSH1 0xA0 SHL SUB AND PUSH1 0x40 MLOAD PUSH2 0x102 SWAP2 SWAP1 PUSH2 0x10B7 JUMP JUMPDEST PUSH1 0x4 SLOAD PUSH2 0x16F SWAP1 PUSH1 0xFF AND DUP2 JUMP JUMPDEST PUSH1 0x40 MLOAD PUSH2 0x102 SWAP2 SWAP1 PUSH2 0x10E1 JUMP JUMPDEST PUSH2 0x1B0 PUSH2 0x18A CALLDATASIZE PUSH1 0x4 PUSH2 0x1087 JUMP JUMPDEST PUSH1 0x2 PUSH1 0x20 MSTORE PUSH1 0x0 SWAP1 DUP2 MSTORE PUSH1 0x40 SWAP1 KECCAK256 DUP1 SLOAD PUSH1 0x1 SWAP1 SWAP2 ADD SLOAD PUSH1 0xFF DUP1 DUP4 AND SWAP3 PUSH2 0x100 SWAP1 DIV AND SWAP1 DUP4 JUMP JUMPDEST PUSH1 0x40 DUP1 MLOAD SWAP4 ISZERO ISZERO DUP5 MSTORE SWAP2 ISZERO ISZERO PUSH1 0x20 DUP5 ADD MSTORE SWAP1 DUP3 ADD MSTORE PUSH1 0x60 ADD PUSH2 0x102 JUMP JUMPDEST PUSH2 0x1D5 PUSH2 0x99A JUMP JUMPDEST PUSH1 0x40 MLOAD PUSH2 0x102 SWAP3 SWAP2 SWAP1 PUSH2 0x1109 JUMP JUMPDEST PUSH2 0xDD PUSH2 0xC1A JUMP JUMPDEST PUSH2 0xDD PUSH2 0xCB9 JUMP JUMPDEST PUSH2 0xDD PUSH2 0xD6E JUMP JUMPDEST PUSH2 0xDD PUSH2 0x209 CALLDATASIZE PUSH1 0x4 PUSH2 0x1087 JUMP JUMPDEST PUSH2 0xE29 JUMP JUMPDEST CALLER PUSH1 0x0 SWAP1 DUP2 MSTORE PUSH1 0x2 PUSH1 0x20 MSTORE PUSH1 0x40 SWAP1 KECCAK256 SLOAD PUSH1 0xFF AND PUSH2 0x272 JUMPI PUSH1 0x40 MLOAD PUSH3 0x461BCD PUSH1 0xE5 SHL DUP2 MSTORE PUSH1 0x20 PUSH1 0x4 DUP3 ADD DUP2 SWAP1 MSTORE PUSH1 0x24 DUP3 ADD MSTORE PUSH32 0x4F6E6C79207265676973746572656420766F746572732063616E20766F74652E PUSH1 0x44 DUP3 ADD MSTORE PUSH1 0x64 ADD JUMPDEST PUSH1 0x40 MLOAD DUP1 SWAP2 SUB SWAP1 REVERT JUMPDEST CALLER PUSH1 0x0 SWAP1 DUP2 MSTORE PUSH1 0x2 PUSH1 0x20 MSTORE PUSH1 0x40 SWAP1 KECCAK256 SLOAD PUSH2 0x100 SWAP1 DIV PUSH1 0xFF AND ISZERO PUSH2 0x2D7 JUMPI PUSH1 0x40 MLOAD PUSH3 0x461BCD PUSH1 0xE5 SHL DUP2 MSTORE PUSH1 0x20 PUSH1 0x4 DUP3 ADD MSTORE PUSH1 0x1C PUSH1 0x24 DUP3 ADD MSTORE PUSH32 0x54686520766F7465722068617320616C726561647920766F7465642E00000000 PUSH1 0x44 DUP3 ADD MSTORE PUSH1 0x64 ADD PUSH2 0x269 JUMP JUMPDEST PUSH1 0x3 PUSH1 0x4 SLOAD PUSH1 0xFF AND PUSH1 0x5 DUP2 GT ISZERO PUSH2 0x2F0 JUMPI PUSH2 0x2F0 PUSH2 0x10CB JUMP JUMPDEST EQ PUSH2 0x357 JUMPI PUSH1 0x40 MLOAD PUSH3 0x461BCD PUSH1 0xE5 SHL DUP2 MSTORE PUSH1 0x20 PUSH1 0x4 DUP3 ADD MSTORE PUSH1 0x31 PUSH1 0x24 DUP3 ADD MSTORE PUSH32 0x566F7465732063616E206F6E6C79206265206361737420647572696E67207468 PUSH1 0x44 DUP3 ADD MSTORE PUSH17 0x32903B37BA34B7339039B2B9B9B4B7B717 PUSH1 0x79 SHL PUSH1 0x64 DUP3 ADD MSTORE PUSH1 0x84 ADD PUSH2 0x269 JUMP JUMPDEST PUSH1 0x3 SLOAD DUP2 LT PUSH2 0x39F JUMPI PUSH1 0x40 MLOAD PUSH3 0x461BCD PUSH1 0xE5 SHL DUP2 MSTORE PUSH1 0x20 PUSH1 0x4 DUP3 ADD MSTORE PUSH1 0x14 PUSH1 0x24 DUP3 ADD MSTORE PUSH20 0x24B73B30B634B210383937B837B9B0B61034B217 PUSH1 0x61 SHL PUSH1 0x44 DUP3 ADD MSTORE PUSH1 0x64 ADD PUSH2 0x269 JUMP JUMPDEST CALLER PUSH1 0x0 SWAP1 DUP2 MSTORE PUSH1 0x2 PUSH1 0x20 MSTORE PUSH1 0x40 SWAP1 KECCAK256 DUP1 SLOAD PUSH2 0xFF00 NOT AND PUSH2 0x100 OR DUP2 SSTORE PUSH1 0x1 SWAP1 DUP2 ADD DUP3 SWAP1 SSTORE PUSH1 0x3 DUP1 SLOAD DUP4 SWAP1 DUP2 LT PUSH2 0x3D7 JUMPI PUSH2 0x3D7 PUSH2 0x1137 JUMP JUMPDEST SWAP1 PUSH1 0x0 MSTORE PUSH1 0x20 PUSH1 0x0 KECCAK256 SWAP1 PUSH1 0x4 MUL ADD PUSH1 0x3 ADD PUSH1 0x0 DUP3 DUP3 SLOAD PUSH2 0x3F7 SWAP2 SWAP1 PUSH2 0x1163 JUMP JUMPDEST SWAP1 SWAP2 SSTORE POP POP POP JUMP JUMPDEST PUSH1 0x3 DUP2 DUP2 SLOAD DUP2 LT PUSH2 0x40F JUMPI PUSH1 0x0 DUP1 REVERT JUMPDEST PUSH1 0x0 SWAP2 DUP3 MSTORE PUSH1 0x20 SWAP1 SWAP2 KECCAK256 PUSH1 0x4 SWAP1 SWAP2 MUL ADD DUP1 SLOAD PUSH1 0x1 DUP3 ADD DUP1 SLOAD SWAP2 SWAP4 POP SWAP1 PUSH2 0x434 SWAP1 PUSH2 0x117C JUMP JUMPDEST DUP1 PUSH1 0x1F ADD PUSH1 0x20 DUP1 SWAP2 DIV MUL PUSH1 0x20 ADD PUSH1 0x40 MLOAD SWAP1 DUP2 ADD PUSH1 0x40 MSTORE DUP1 SWAP3 SWAP2 SWAP1 DUP2 DUP2 MSTORE PUSH1 0x20 ADD DUP3 DUP1 SLOAD PUSH2 0x460 SWAP1 PUSH2 0x117C JUMP JUMPDEST DUP1 ISZERO PUSH2 0x4AD JUMPI DUP1 PUSH1 0x1F LT PUSH2 0x482 JUMPI PUSH2 0x100 DUP1 DUP4 SLOAD DIV MUL DUP4 MSTORE SWAP2 PUSH1 0x20 ADD SWAP2 PUSH2 0x4AD JUMP JUMPDEST DUP3 ADD SWAP2 SWAP1 PUSH1 0x0 MSTORE PUSH1 0x20 PUSH1 0x0 KECCAK256 SWAP1 JUMPDEST DUP2 SLOAD DUP2 MSTORE SWAP1 PUSH1 0x1 ADD SWAP1 PUSH1 0x20 ADD DUP1 DUP4 GT PUSH2 0x490 JUMPI DUP3 SWAP1 SUB PUSH1 0x1F AND DUP3 ADD SWAP2 JUMPDEST POP POP POP POP POP SWAP1 DUP1 PUSH1 0x2 ADD DUP1 SLOAD PUSH2 0x4C2 SWAP1 PUSH2 0x117C JUMP JUMPDEST DUP1 PUSH1 0x1F ADD PUSH1 0x20 DUP1 SWAP2 DIV MUL PUSH1 0x20 ADD PUSH1 0x40 MLOAD SWAP1 DUP2 ADD PUSH1 0x40 MSTORE DUP1 SWAP3 SWAP2 SWAP1 DUP2 DUP2 MSTORE PUSH1 0x20 ADD DUP3 DUP1 SLOAD PUSH2 0x4EE SWAP1 PUSH2 0x117C JUMP JUMPDEST DUP1 ISZERO PUSH2 0x53B JUMPI DUP1 PUSH1 0x1F LT PUSH2 0x510 JUMPI PUSH2 0x100 DUP1 DUP4 SLOAD DIV MUL DUP4 MSTORE SWAP2 PUSH1 0x20 ADD SWAP2 PUSH2 0x53B JUMP JUMPDEST DUP3 ADD SWAP2 SWAP1 PUSH1 0x0 MSTORE PUSH1 0x20 PUSH1 0x0 KECCAK256 SWAP1 JUMPDEST DUP2 SLOAD DUP2 MSTORE SWAP1 PUSH1 0x1 ADD SWAP1 PUSH1 0x20 ADD DUP1 DUP4 GT PUSH2 0x51E JUMPI DUP3 SWAP1 SUB PUSH1 0x1F AND DUP3 ADD SWAP2 JUMPDEST POP POP POP POP POP SWAP1 DUP1 PUSH1 0x3 ADD SLOAD SWAP1 POP DUP5 JUMP JUMPDEST CALLER PUSH1 0x0 SWAP1 DUP2 MSTORE PUSH1 0x2 PUSH1 0x20 MSTORE PUSH1 0x40 SWAP1 KECCAK256 SLOAD PUSH1 0xFF AND PUSH2 0x5C1 JUMPI PUSH1 0x40 MLOAD PUSH3 0x461BCD PUSH1 0xE5 SHL DUP2 MSTORE PUSH1 0x20 PUSH1 0x4 DUP3 ADD MSTORE PUSH1 0x2E PUSH1 0x24 DUP3 ADD MSTORE PUSH32 0x4F6E6C79207265676973746572656420766F746572732063616E207265676973 PUSH1 0x44 DUP3 ADD MSTORE PUSH14 0x3A32B910383937B837B9B0B63997 PUSH1 0x91 SHL PUSH1 0x64 DUP3 ADD MSTORE PUSH1 0x84 ADD PUSH2 0x269 JUMP JUMPDEST PUSH1 0x1 PUSH1 0x4 SLOAD PUSH1 0xFF AND PUSH1 0x5 DUP2 GT ISZERO PUSH2 0x5DA JUMPI PUSH2 0x5DA PUSH2 0x10CB JUMP JUMPDEST EQ PUSH2 0x64D JUMPI PUSH1 0x40 MLOAD PUSH3 0x461BCD PUSH1 0xE5 SHL DUP2 MSTORE PUSH1 0x20 PUSH1 0x4 DUP3 ADD MSTORE PUSH1 0x3F PUSH1 0x24 DUP3 ADD MSTORE PUSH32 0x50726F706F73616C732063616E206F6E6C792062652072656769737465726564 PUSH1 0x44 DUP3 ADD MSTORE PUSH32 0x20647572696E672070726F706F73616C7320726567697374726174696F6E2E00 PUSH1 0x64 DUP3 ADD MSTORE PUSH1 0x84 ADD PUSH2 0x269 JUMP JUMPDEST PUSH1 0x40 DUP1 MLOAD PUSH1 0x80 DUP2 ADD DUP3 MSTORE PUSH1 0x3 DUP1 SLOAD DUP1 DUP4 MSTORE PUSH1 0x20 DUP4 ADD DUP7 DUP2 MSTORE SWAP4 DUP4 ADD DUP6 SWAP1 MSTORE PUSH1 0x0 PUSH1 0x60 DUP5 ADD DUP2 SWAP1 MSTORE PUSH1 0x1 DUP3 ADD DUP4 SSTORE SWAP2 SWAP1 SWAP2 MSTORE DUP2 MLOAD PUSH1 0x4 SWAP1 SWAP2 MUL PUSH32 0xC2575A0E9E593C00F959F8C92F12DB2869C3395A3B0502D05E2516446F71F85B DUP2 ADD SWAP2 DUP3 SSTORE SWAP3 MLOAD SWAP2 SWAP3 SWAP1 SWAP2 PUSH32 0xC2575A0E9E593C00F959F8C92F12DB2869C3395A3B0502D05E2516446F71F85C SWAP1 SWAP2 ADD SWAP1 PUSH2 0x6E0 SWAP1 DUP3 PUSH2 0x1205 JUMP JUMPDEST POP PUSH1 0x40 DUP3 ADD MLOAD PUSH1 0x2 DUP3 ADD SWAP1 PUSH2 0x6F5 SWAP1 DUP3 PUSH2 0x1205 JUMP JUMPDEST POP PUSH1 0x60 DUP3 ADD MLOAD DUP2 PUSH1 0x3 ADD SSTORE POP POP POP POP JUMP JUMPDEST PUSH2 0x70E PUSH2 0xE67 JUMP JUMPDEST PUSH1 0x4 DUP1 SLOAD PUSH1 0xFF AND PUSH1 0x5 DUP2 GT ISZERO PUSH2 0x726 JUMPI PUSH2 0x726 PUSH2 0x10CB JUMP JUMPDEST EQ PUSH2 0x795 JUMPI PUSH1 0x40 MLOAD PUSH3 0x461BCD PUSH1 0xE5 SHL DUP2 MSTORE PUSH1 0x20 PUSH1 0x4 DUP3 ADD MSTORE PUSH1 0x39 PUSH1 0x24 DUP3 ADD MSTORE PUSH32 0x566F7465732063616E206F6E6C792062652074616C6C69656420616674657220 PUSH1 0x44 DUP3 ADD MSTORE PUSH25 0x3B37BA34B7339039B2B9B9B4B7B7103430B99032B73232B217 PUSH1 0x39 SHL PUSH1 0x64 DUP3 ADD MSTORE PUSH1 0x84 ADD PUSH2 0x269 JUMP JUMPDEST PUSH1 0x4 DUP1 SLOAD PUSH1 0x5 SWAP2 SWAP1 PUSH1 0xFF NOT AND PUSH1 0x1 DUP4 JUMPDEST MUL OR SWAP1 SSTORE POP JUMP JUMPDEST PUSH2 0x7B4 PUSH2 0xE67 JUMP JUMPDEST PUSH1 0x0 PUSH1 0x4 SLOAD PUSH1 0xFF AND PUSH1 0x5 DUP2 GT ISZERO PUSH2 0x7CD JUMPI PUSH2 0x7CD PUSH2 0x10CB JUMP JUMPDEST EQ PUSH2 0x851 JUMPI PUSH1 0x40 MLOAD PUSH3 0x461BCD PUSH1 0xE5 SHL DUP2 MSTORE PUSH1 0x20 PUSH1 0x4 DUP3 ADD MSTORE PUSH1 0x48 PUSH1 0x24 DUP3 ADD MSTORE PUSH32 0x566F746572732063616E206F6E6C792062652072656769737465726564206265 PUSH1 0x44 DUP3 ADD MSTORE PUSH32 0x666F72652070726F706F73616C7320726567697374726174696F6E2068617320 PUSH1 0x64 DUP3 ADD MSTORE PUSH8 0x39BA30B93A32B217 PUSH1 0xC1 SHL PUSH1 0x84 DUP3 ADD MSTORE PUSH1 0xA4 ADD PUSH2 0x269 JUMP JUMPDEST PUSH1 0x1 PUSH1 0x1 PUSH1 0xA0 SHL SUB DUP2 AND PUSH1 0x0 SWAP1 DUP2 MSTORE PUSH1 0x2 PUSH1 0x20 MSTORE PUSH1 0x40 SWAP1 KECCAK256 SLOAD PUSH1 0xFF AND ISZERO PUSH2 0x8BA JUMPI PUSH1 0x40 MLOAD PUSH3 0x461BCD PUSH1 0xE5 SHL DUP2 MSTORE PUSH1 0x20 PUSH1 0x4 DUP3 ADD DUP2 SWAP1 MSTORE PUSH1 0x24 DUP3 ADD MSTORE PUSH32 0x54686520766F74657220697320616C726561647920726567697374657265642E PUSH1 0x44 DUP3 ADD MSTORE PUSH1 0x64 ADD PUSH2 0x269 JUMP JUMPDEST PUSH1 0x1 PUSH1 0x1 PUSH1 0xA0 SHL SUB AND PUSH1 0x0 SWAP1 DUP2 MSTORE PUSH1 0x2 PUSH1 0x20 MSTORE PUSH1 0x40 SWAP1 KECCAK256 DUP1 SLOAD PUSH1 0xFF NOT AND PUSH1 0x1 OR SWAP1 SSTORE JUMP JUMPDEST PUSH2 0x8E6 PUSH2 0xE67 JUMP JUMPDEST PUSH1 0x1 PUSH1 0x4 SLOAD PUSH1 0xFF AND PUSH1 0x5 DUP2 GT ISZERO PUSH2 0x8FF JUMPI PUSH2 0x8FF PUSH2 0x10CB JUMP JUMPDEST EQ PUSH2 0x972 JUMPI PUSH1 0x40 MLOAD PUSH3 0x461BCD PUSH1 0xE5 SHL DUP2 MSTORE PUSH1 0x20 PUSH1 0x4 DUP3 ADD MSTORE PUSH1 0x3E PUSH1 0x24 DUP3 ADD MSTORE PUSH32 0x50726F706F73616C7320726567697374726174696F6E2063616E206F6E6C7920 PUSH1 0x44 DUP3 ADD MSTORE PUSH32 0x626520656E6465642061667465722069742068617320737461727465642E0000 PUSH1 0x64 DUP3 ADD MSTORE PUSH1 0x84 ADD PUSH2 0x269 JUMP JUMPDEST PUSH1 0x4 DUP1 SLOAD PUSH1 0x2 SWAP2 SWAP1 PUSH1 0xFF NOT AND PUSH1 0x1 DUP4 PUSH2 0x7A5 JUMP JUMPDEST PUSH2 0x98E PUSH2 0xE67 JUMP JUMPDEST PUSH2 0x998 PUSH1 0x0 PUSH2 0xE94 JUMP JUMPDEST JUMP JUMPDEST PUSH1 0x60 DUP1 PUSH1 0x5 PUSH1 0x4 SLOAD PUSH1 0xFF AND PUSH1 0x5 DUP2 GT ISZERO PUSH2 0x9B6 JUMPI PUSH2 0x9B6 PUSH2 0x10CB JUMP JUMPDEST EQ PUSH2 0xA3C JUMPI PUSH1 0x40 MLOAD PUSH3 0x461BCD PUSH1 0xE5 SHL DUP2 MSTORE PUSH1 0x20 PUSH1 0x4 DUP3 ADD MSTORE PUSH1 0x4A PUSH1 0x24 DUP3 ADD MSTORE PUSH32 0x5468652077696E6E696E672070726F706F73616C2063616E206F6E6C79206265 PUSH1 0x44 DUP3 ADD MSTORE PUSH32 0x2064657465726D696E656420616674657220766F746573206861766520626565 PUSH1 0x64 DUP3 ADD MSTORE PUSH10 0x37103A30B63634B2B217 PUSH1 0xB1 SHL PUSH1 0x84 DUP3 ADD MSTORE PUSH1 0xA4 ADD PUSH2 0x269 JUMP JUMPDEST PUSH1 0x0 DUP1 PUSH1 0x0 JUMPDEST PUSH1 0x3 SLOAD DUP2 LT ISZERO PUSH2 0xAB5 JUMPI DUP3 PUSH1 0x3 DUP3 DUP2 SLOAD DUP2 LT PUSH2 0xA60 JUMPI PUSH2 0xA60 PUSH2 0x1137 JUMP JUMPDEST SWAP1 PUSH1 0x0 MSTORE PUSH1 0x20 PUSH1 0x0 KECCAK256 SWAP1 PUSH1 0x4 MUL ADD PUSH1 0x3 ADD SLOAD GT ISZERO PUSH2 0xAA3 JUMPI PUSH1 0x3 DUP2 DUP2 SLOAD DUP2 LT PUSH2 0xA8B JUMPI PUSH2 0xA8B PUSH2 0x1137 JUMP JUMPDEST SWAP1 PUSH1 0x0 MSTORE PUSH1 0x20 PUSH1 0x0 KECCAK256 SWAP1 PUSH1 0x4 MUL ADD PUSH1 0x3 ADD SLOAD SWAP3 POP DUP1 SWAP2 POP JUMPDEST DUP1 PUSH2 0xAAD DUP2 PUSH2 0x12C5 JUMP JUMPDEST SWAP2 POP POP PUSH2 0xA42 JUMP JUMPDEST POP PUSH1 0x3 DUP2 DUP2 SLOAD DUP2 LT PUSH2 0xAC9 JUMPI PUSH2 0xAC9 PUSH2 0x1137 JUMP JUMPDEST SWAP1 PUSH1 0x0 MSTORE PUSH1 0x20 PUSH1 0x0 KECCAK256 SWAP1 PUSH1 0x4 MUL ADD PUSH1 0x1 ADD DUP1 SLOAD PUSH2 0xAE5 SWAP1 PUSH2 0x117C JUMP JUMPDEST DUP1 PUSH1 0x1F ADD PUSH1 0x20 DUP1 SWAP2 DIV MUL PUSH1 0x20 ADD PUSH1 0x40 MLOAD SWAP1 DUP2 ADD PUSH1 0x40 MSTORE DUP1 SWAP3 SWAP2 SWAP1 DUP2 DUP2 MSTORE PUSH1 0x20 ADD DUP3 DUP1 SLOAD PUSH2 0xB11 SWAP1 PUSH2 0x117C JUMP JUMPDEST DUP1 ISZERO PUSH2 0xB5E JUMPI DUP1 PUSH1 0x1F LT PUSH2 0xB33 JUMPI PUSH2 0x100 DUP1 DUP4 SLOAD DIV MUL DUP4 MSTORE SWAP2 PUSH1 0x20 ADD SWAP2 PUSH2 0xB5E JUMP JUMPDEST DUP3 ADD SWAP2 SWAP1 PUSH1 0x0 MSTORE PUSH1 0x20 PUSH1 0x0 KECCAK256 SWAP1 JUMPDEST DUP2 SLOAD DUP2 MSTORE SWAP1 PUSH1 0x1 ADD SWAP1 PUSH1 0x20 ADD DUP1 DUP4 GT PUSH2 0xB41 JUMPI DUP3 SWAP1 SUB PUSH1 0x1F AND DUP3 ADD SWAP2 JUMPDEST POP POP POP POP POP SWAP4 POP PUSH1 0x3 DUP2 DUP2 SLOAD DUP2 LT PUSH2 0xB78 JUMPI PUSH2 0xB78 PUSH2 0x1137 JUMP JUMPDEST SWAP1 PUSH1 0x0 MSTORE PUSH1 0x20 PUSH1 0x0 KECCAK256 SWAP1 PUSH1 0x4 MUL ADD PUSH1 0x2 ADD DUP1 SLOAD PUSH2 0xB94 SWAP1 PUSH2 0x117C JUMP JUMPDEST DUP1 PUSH1 0x1F ADD PUSH1 0x20 DUP1 SWAP2 DIV MUL PUSH1 0x20 ADD PUSH1 0x40 MLOAD SWAP1 DUP2 ADD PUSH1 0x40 MSTORE DUP1 SWAP3 SWAP2 SWAP1 DUP2 DUP2 MSTORE PUSH1 0x20 ADD DUP3 DUP1 SLOAD PUSH2 0xBC0 SWAP1 PUSH2 0x117C JUMP JUMPDEST DUP1 ISZERO PUSH2 0xC0D JUMPI DUP1 PUSH1 0x1F LT PUSH2 0xBE2 JUMPI PUSH2 0x100 DUP1 DUP4 SLOAD DIV MUL DUP4 MSTORE SWAP2 PUSH1 0x20 ADD SWAP2 PUSH2 0xC0D JUMP JUMPDEST DUP3 ADD SWAP2 SWAP1 PUSH1 0x0 MSTORE PUSH1 0x20 PUSH1 0x0 KECCAK256 SWAP1 JUMPDEST DUP2 SLOAD DUP2 MSTORE SWAP1 PUSH1 0x1 ADD SWAP1 PUSH1 0x20 ADD DUP1 DUP4 GT PUSH2 0xBF0 JUMPI DUP3 SWAP1 SUB PUSH1 0x1F AND DUP3 ADD SWAP2 JUMPDEST POP POP POP POP POP SWAP3 POP POP POP SWAP1 SWAP2 JUMP JUMPDEST PUSH2 0xC22 PUSH2 0xE67 JUMP JUMPDEST PUSH1 0x3 PUSH1 0x4 SLOAD PUSH1 0xFF AND PUSH1 0x5 DUP2 GT ISZERO PUSH2 0xC3B JUMPI PUSH2 0xC3B PUSH2 0x10CB JUMP JUMPDEST EQ PUSH2 0xCA7 JUMPI PUSH1 0x40 MLOAD PUSH3 0x461BCD PUSH1 0xE5 SHL DUP2 MSTORE PUSH1 0x20 PUSH1 0x4 DUP3 ADD MSTORE PUSH1 0x36 PUSH1 0x24 DUP3 ADD MSTORE PUSH32 0x566F74696E672073657373696F6E2063616E206F6E6C7920626520656E646564 PUSH1 0x44 DUP3 ADD MSTORE PUSH22 0x1030B33A32B91034BA103430B99039BA30B93A32B217 PUSH1 0x51 SHL PUSH1 0x64 DUP3 ADD MSTORE PUSH1 0x84 ADD PUSH2 0x269 JUMP JUMPDEST PUSH1 0x4 DUP1 SLOAD DUP2 SWAP1 PUSH1 0xFF NOT AND PUSH1 0x1 DUP3 PUSH2 0x7A5 JUMP JUMPDEST PUSH2 0xCC1 PUSH2 0xE67 JUMP JUMPDEST PUSH1 0x0 PUSH1 0x4 SLOAD PUSH1 0xFF AND PUSH1 0x5 DUP2 GT ISZERO PUSH2 0xCDA JUMPI PUSH2 0xCDA PUSH2 0x10CB JUMP JUMPDEST EQ PUSH2 0xD5B JUMPI PUSH1 0x40 MLOAD PUSH3 0x461BCD PUSH1 0xE5 SHL DUP2 MSTORE PUSH1 0x20 PUSH1 0x4 DUP3 ADD MSTORE PUSH1 0x45 PUSH1 0x24 DUP3 ADD MSTORE PUSH32 0x50726F706F73616C7320726567697374726174696F6E2063616E206F6E6C7920 PUSH1 0x44 DUP3 ADD MSTORE PUSH32 0x6265207374617274656420616674657220766F74657273207265676973747261 PUSH1 0x64 DUP3 ADD MSTORE PUSH5 0x3A34B7B717 PUSH1 0xD9 SHL PUSH1 0x84 DUP3 ADD MSTORE PUSH1 0xA4 ADD PUSH2 0x269 JUMP JUMPDEST PUSH1 0x4 DUP1 SLOAD PUSH1 0x1 SWAP2 SWAP1 PUSH1 0xFF NOT AND DUP3 DUP1 PUSH2 0x7A5 JUMP JUMPDEST PUSH2 0xD76 PUSH2 0xE67 JUMP JUMPDEST PUSH1 0x2 PUSH1 0x4 SLOAD PUSH1 0xFF AND PUSH1 0x5 DUP2 GT ISZERO PUSH2 0xD8F JUMPI PUSH2 0xD8F PUSH2 0x10CB JUMP JUMPDEST EQ PUSH2 0xE15 JUMPI PUSH1 0x40 MLOAD PUSH3 0x461BCD PUSH1 0xE5 SHL DUP2 MSTORE PUSH1 0x20 PUSH1 0x4 DUP3 ADD MSTORE PUSH1 0x4A PUSH1 0x24 DUP3 ADD MSTORE PUSH32 0x566F74696E672073657373696F6E2063616E206F6E6C79206265207374617274 PUSH1 0x44 DUP3 ADD MSTORE PUSH32 0x65642061667465722070726F706F73616C7320726567697374726174696F6E20 PUSH1 0x64 DUP3 ADD MSTORE PUSH10 0x3430B99032B73232B217 PUSH1 0xB1 SHL PUSH1 0x84 DUP3 ADD MSTORE PUSH1 0xA4 ADD PUSH2 0x269 JUMP JUMPDEST PUSH1 0x4 DUP1 SLOAD PUSH1 0x3 SWAP2 SWAP1 PUSH1 0xFF NOT AND PUSH1 0x1 DUP4 PUSH2 0x7A5 JUMP JUMPDEST PUSH2 0xE31 PUSH2 0xE67 JUMP JUMPDEST PUSH1 0x1 PUSH1 0x1 PUSH1 0xA0 SHL SUB DUP2 AND PUSH2 0xE5B JUMPI PUSH1 0x0 PUSH1 0x40 MLOAD PUSH4 0x1E4FBDF7 PUSH1 0xE0 SHL DUP2 MSTORE PUSH1 0x4 ADD PUSH2 0x269 SWAP2 SWAP1 PUSH2 0x10B7 JUMP JUMPDEST PUSH2 0xE64 DUP2 PUSH2 0xE94 JUMP JUMPDEST POP JUMP JUMPDEST PUSH1 0x0 SLOAD PUSH1 0x1 PUSH1 0x1 PUSH1 0xA0 SHL SUB AND CALLER EQ PUSH2 0x998 JUMPI CALLER PUSH1 0x40 MLOAD PUSH4 0x118CDAA7 PUSH1 0xE0 SHL DUP2 MSTORE PUSH1 0x4 ADD PUSH2 0x269 SWAP2 SWAP1 PUSH2 0x10B7 JUMP JUMPDEST PUSH1 0x0 DUP1 SLOAD PUSH1 0x1 PUSH1 0x1 PUSH1 0xA0 SHL SUB DUP4 DUP2 AND PUSH1 0x1 PUSH1 0x1 PUSH1 0xA0 SHL SUB NOT DUP4 AND DUP2 OR DUP5 SSTORE PUSH1 0x40 MLOAD SWAP2 SWAP1 SWAP3 AND SWAP3 DUP4 SWAP2 PUSH32 0x8BE0079C531659141344CD1FD0A4F28419497F9722A3DAAFE3B4186F6B6457E0 SWAP2 SWAP1 LOG3 POP POP JUMP JUMPDEST PUSH1 0x0 PUSH1 0x20 DUP3 DUP5 SUB SLT ISZERO PUSH2 0xEF6 JUMPI PUSH1 0x0 DUP1 REVERT JUMPDEST POP CALLDATALOAD SWAP2 SWAP1 POP JUMP JUMPDEST PUSH1 0x0 DUP2 MLOAD DUP1 DUP5 MSTORE PUSH1 0x0 JUMPDEST DUP2 DUP2 LT ISZERO PUSH2 0xF23 JUMPI PUSH1 0x20 DUP2 DUP6 ADD DUP2 ADD MLOAD DUP7 DUP4 ADD DUP3 ADD MSTORE ADD PUSH2 0xF07 JUMP JUMPDEST POP PUSH1 0x0 PUSH1 0x20 DUP3 DUP7 ADD ADD MSTORE PUSH1 0x20 PUSH1 0x1F NOT PUSH1 0x1F DUP4 ADD AND DUP6 ADD ADD SWAP2 POP POP SWAP3 SWAP2 POP POP JUMP JUMPDEST DUP5 DUP2 MSTORE PUSH1 0x80 PUSH1 0x20 DUP3 ADD MSTORE PUSH1 0x0 PUSH2 0xF5C PUSH1 0x80 DUP4 ADD DUP7 PUSH2 0xEFD JUMP JUMPDEST DUP3 DUP2 SUB PUSH1 0x40 DUP5 ADD MSTORE PUSH2 0xF6E DUP2 DUP7 PUSH2 0xEFD JUMP JUMPDEST SWAP2 POP POP DUP3 PUSH1 0x60 DUP4 ADD MSTORE SWAP6 SWAP5 POP POP POP POP POP JUMP JUMPDEST PUSH4 0x4E487B71 PUSH1 0xE0 SHL PUSH1 0x0 MSTORE PUSH1 0x41 PUSH1 0x4 MSTORE PUSH1 0x24 PUSH1 0x0 REVERT JUMPDEST PUSH1 0x0 DUP3 PUSH1 0x1F DUP4 ADD SLT PUSH2 0xFA7 JUMPI PUSH1 0x0 DUP1 REVERT JUMPDEST DUP2 CALLDATALOAD PUSH8 0xFFFFFFFFFFFFFFFF DUP1 DUP3 GT ISZERO PUSH2 0xFC2 JUMPI PUSH2 0xFC2 PUSH2 0xF80 JUMP JUMPDEST PUSH1 0x40 MLOAD PUSH1 0x1F DUP4 ADD PUSH1 0x1F NOT SWAP1 DUP2 AND PUSH1 0x3F ADD AND DUP2 ADD SWAP1 DUP3 DUP3 GT DUP2 DUP4 LT OR ISZERO PUSH2 0xFEA JUMPI PUSH2 0xFEA PUSH2 0xF80 JUMP JUMPDEST DUP2 PUSH1 0x40 MSTORE DUP4 DUP2 MSTORE DUP7 PUSH1 0x20 DUP6 DUP9 ADD ADD GT ISZERO PUSH2 0x1003 JUMPI PUSH1 0x0 DUP1 REVERT JUMPDEST DUP4 PUSH1 0x20 DUP8 ADD PUSH1 0x20 DUP4 ADD CALLDATACOPY PUSH1 0x0 PUSH1 0x20 DUP6 DUP4 ADD ADD MSTORE DUP1 SWAP5 POP POP POP POP POP SWAP3 SWAP2 POP POP JUMP JUMPDEST PUSH1 0x0 DUP1 PUSH1 0x40 DUP4 DUP6 SUB SLT ISZERO PUSH2 0x1036 JUMPI PUSH1 0x0 DUP1 REVERT JUMPDEST DUP3 CALLDATALOAD PUSH8 0xFFFFFFFFFFFFFFFF DUP1 DUP3 GT ISZERO PUSH2 0x104E JUMPI PUSH1 0x0 DUP1 REVERT JUMPDEST PUSH2 0x105A DUP7 DUP4 DUP8 ADD PUSH2 0xF96 JUMP JUMPDEST SWAP4 POP PUSH1 0x20 DUP6 ADD CALLDATALOAD SWAP2 POP DUP1 DUP3 GT ISZERO PUSH2 0x1070 JUMPI PUSH1 0x0 DUP1 REVERT JUMPDEST POP PUSH2 0x107D DUP6 DUP3 DUP7 ADD PUSH2 0xF96 JUMP JUMPDEST SWAP2 POP POP SWAP3 POP SWAP3 SWAP1 POP JUMP JUMPDEST PUSH1 0x0 PUSH1 0x20 DUP3 DUP5 SUB SLT ISZERO PUSH2 0x1099 JUMPI PUSH1 0x0 DUP1 REVERT JUMPDEST DUP2 CALLDATALOAD PUSH1 0x1 PUSH1 0x1 PUSH1 0xA0 SHL SUB DUP2 AND DUP2 EQ PUSH2 0x10B0 JUMPI PUSH1 0x0 DUP1 REVERT JUMPDEST SWAP4 SWAP3 POP POP POP JUMP JUMPDEST PUSH1 0x1 PUSH1 0x1 PUSH1 0xA0 SHL SUB SWAP2 SWAP1 SWAP2 AND DUP2 MSTORE PUSH1 0x20 ADD SWAP1 JUMP JUMPDEST PUSH4 0x4E487B71 PUSH1 0xE0 SHL PUSH1 0x0 MSTORE PUSH1 0x21 PUSH1 0x4 MSTORE PUSH1 0x24 PUSH1 0x0 REVERT JUMPDEST PUSH1 0x20 DUP2 ADD PUSH1 0x6 DUP4 LT PUSH2 0x1103 JUMPI PUSH4 0x4E487B71 PUSH1 0xE0 SHL PUSH1 0x0 MSTORE PUSH1 0x21 PUSH1 0x4 MSTORE PUSH1 0x24 PUSH1 0x0 REVERT JUMPDEST SWAP2 SWAP1 MSTORE SWAP1 JUMP JUMPDEST PUSH1 0x40 DUP2 MSTORE PUSH1 0x0 PUSH2 0x111C PUSH1 0x40 DUP4 ADD DUP6 PUSH2 0xEFD JUMP JUMPDEST DUP3 DUP2 SUB PUSH1 0x20 DUP5 ADD MSTORE PUSH2 0x112E DUP2 DUP6 PUSH2 0xEFD JUMP JUMPDEST SWAP6 SWAP5 POP POP POP POP POP JUMP JUMPDEST PUSH4 0x4E487B71 PUSH1 0xE0 SHL PUSH1 0x0 MSTORE PUSH1 0x32 PUSH1 0x4 MSTORE PUSH1 0x24 PUSH1 0x0 REVERT JUMPDEST PUSH4 0x4E487B71 PUSH1 0xE0 SHL PUSH1 0x0 MSTORE PUSH1 0x11 PUSH1 0x4 MSTORE PUSH1 0x24 PUSH1 0x0 REVERT JUMPDEST DUP1 DUP3 ADD DUP1 DUP3 GT ISZERO PUSH2 0x1176 JUMPI PUSH2 0x1176 PUSH2 0x114D JUMP JUMPDEST SWAP3 SWAP2 POP POP JUMP JUMPDEST PUSH1 0x1 DUP2 DUP2 SHR SWAP1 DUP3 AND DUP1 PUSH2 0x1190 JUMPI PUSH1 0x7F DUP3 AND SWAP2 POP JUMPDEST PUSH1 0x20 DUP3 LT DUP2 SUB PUSH2 0x11B0 JUMPI PUSH4 0x4E487B71 PUSH1 0xE0 SHL PUSH1 0x0 MSTORE PUSH1 0x22 PUSH1 0x4 MSTORE PUSH1 0x24 PUSH1 0x0 REVERT JUMPDEST POP SWAP2 SWAP1 POP JUMP JUMPDEST PUSH1 0x1F DUP3 GT ISZERO PUSH2 0x1200 JUMPI PUSH1 0x0 DUP2 DUP2 MSTORE PUSH1 0x20 DUP2 KECCAK256 PUSH1 0x1F DUP6 ADD PUSH1 0x5 SHR DUP2 ADD PUSH1 0x20 DUP7 LT ISZERO PUSH2 0x11DD JUMPI POP DUP1 JUMPDEST PUSH1 0x1F DUP6 ADD PUSH1 0x5 SHR DUP3 ADD SWAP2 POP JUMPDEST DUP2 DUP2 LT ISZERO PUSH2 0x11FC JUMPI DUP3 DUP2 SSTORE PUSH1 0x1 ADD PUSH2 0x11E9 JUMP JUMPDEST POP POP POP JUMPDEST POP POP POP JUMP JUMPDEST DUP2 MLOAD PUSH8 0xFFFFFFFFFFFFFFFF DUP2 GT ISZERO PUSH2 0x121F JUMPI PUSH2 0x121F PUSH2 0xF80 JUMP JUMPDEST PUSH2 0x1233 DUP2 PUSH2 0x122D DUP5 SLOAD PUSH2 0x117C JUMP JUMPDEST DUP5 PUSH2 0x11B6 JUMP JUMPDEST PUSH1 0x20 DUP1 PUSH1 0x1F DUP4 GT PUSH1 0x1 DUP2 EQ PUSH2 0x1268 JUMPI PUSH1 0x0 DUP5 ISZERO PUSH2 0x1250 JUMPI POP DUP6 DUP4 ADD MLOAD JUMPDEST PUSH1 0x0 NOT PUSH1 0x3 DUP7 SWAP1 SHL SHR NOT AND PUSH1 0x1 DUP6 SWAP1 SHL OR DUP6 SSTORE PUSH2 0x11FC JUMP JUMPDEST PUSH1 0x0 DUP6 DUP2 MSTORE PUSH1 0x20 DUP2 KECCAK256 PUSH1 0x1F NOT DUP7 AND SWAP2 JUMPDEST DUP3 DUP2 LT ISZERO PUSH2 0x1297 JUMPI DUP9 DUP7 ADD MLOAD DUP3 SSTORE SWAP5 DUP5 ADD SWAP5 PUSH1 0x1 SWAP1 SWAP2 ADD SWAP1 DUP5 ADD PUSH2 0x1278 JUMP JUMPDEST POP DUP6 DUP3 LT ISZERO PUSH2 0x12B5 JUMPI DUP8 DUP6 ADD MLOAD PUSH1 0x0 NOT PUSH1 0x3 DUP9 SWAP1 SHL PUSH1 0xF8 AND SHR NOT AND DUP2 SSTORE JUMPDEST POP POP POP POP POP PUSH1 0x1 SWAP1 DUP2 SHL ADD SWAP1 SSTORE POP JUMP JUMPDEST PUSH1 0x0 PUSH1 0x1 DUP3 ADD PUSH2 0x12D7 JUMPI PUSH2 0x12D7 PUSH2 0x114D JUMP JUMPDEST POP PUSH1 0x1 ADD SWAP1 JUMP INVALID LOG2 PUSH5 0x6970667358 0x22 SLT KECCAK256 0xBD 0xFB 0xDB PUSH21 0xF9FAE37EF737860FF42A3D49555EDF5EEB7453DEC SMOD DUP6 MUL SHL DUP2 ISZERO PUSH4 0x64736F6C PUSH4 0x43000814 STOP CALLER "},"methodIdentifiers":{"endProposalsRegistration()":"6c297445","endVotingSession()":"a7bfab16","getWinningProposal()":"a5134620","owner()":"8da5cb5b","proposals(uint256)":"013cf08b","registerProposal(string,string)":"1ee5eda3","registerVoter(address)":"38db6dd3","renounceOwnership()":"715018a6","startProposalsRegistration()":"e09b8c79","startVotingSession()":"ee74c678","tallyVotes()":"378a2178","transferOwnership(address)":"f2fde38b","vote(uint256)":"0121b93f","voters(address)":"a3ec138d","workflowStatus()":"a1edffa2"}}}}}